:100000000C9455000C947D000C947D000C947D00A4
:100010000C947D000C947D000C947D000C947D006C
:100020000C947D000C947D000C947D000C947D005C
:100030000C947D000C947D000C947D000C947D004C
:100040000C944A050C947D000C947D000C947D006A
:100050000C947D000C947D000C947D000C947D002C
:100060000C947D000C947D000000FF00002AD50058
:100070000055AB00007FAB0000ABAB0000D55600D5
:1000800000FF00002AD5000055AB0000AA56000072
:10009000FF000000D5002A00AB00550081007F0062
:1000A0005500AB002B00D500020711241FBECFEF77
:1000B000D8E0DEBFCDBF11E0A0E0B1E0E4E3FFE0B7
:1000C00002C005900D92A232B107D9F721E0A2E259
:1000D000B1E001C01D92AE3EB207E1F710E0C5E508
:1000E000D0E004C02197FE010E947E07C435D107ED
:1000F000C9F70E9494050C9498070C94000080E9BD
:1001000091E008953FB7F8948091250190912601E0
:10011000A0912701B091280126B5A89B05C02F3FCB
:1001200019F00196A11DB11D3FBFBA2FA92F982F1D
:100130008827BC01CD01620F711D811D911D42E018
:10014000660F771F881F991F4A95D1F708954F9220
:100150005F926F927F929F92AF92BF92CF92DF9207
:10016000EF92FF920F931F93CF93DF9300D01F92D4
:10017000CDB7DEB7F82E8091DE019091DF01A0911E
:10018000E001B091E101892B8A2B8B2BD9F00E94E1
:1001900082000091EA011091EB012091EC01309175
:1001A000ED01601B710B820B930B0091DE0110912E
:1001B000DF012091E0013091E101601771078207B2
:1001C0009307C8F20E9482006093EA017093EB01EA
:1001D0008093EC019093ED01E091E601F091E7014D
:1001E000309759F04091E2015091E3016091E401B0
:1001F0007091E5018F2D0995F82E0091E80110917D
:10020000E9014F2C512C712C612C0115110509F4B9
:100210005EC0D8011C96EC901C978091DC019091F7
:10022000DD018436910510F41C961C92D801ED91E5
:10023000FC91A280B38019821A821B82FF2089F16F
:10024000F8013696D12CC12C2191222319F19280EC
:10025000992001F130E050E040E02F5F3F4F4F4FD9
:100260005F4FC301B2010E9412079B01AC01892DAF
:1002700090E0B0E0A0E0BC01CD016F5F7F4F8F4FF9
:100280009F4F0E941207A1E0B0E0AC0FBD1FAC0D64
:10029000BD1D8C93BFEFCB1ADB0A83E0C816D104D7
:1002A00099F6D8011D964D915C911E9712966D910D
:1002B0007C919E012F5F3F4FC801F5010995D80140
:1002C0001C96EC921C9714960D911C919ECF8091D8
:1002D000D9019091DA019C012F5F3F4F3093DA01F1
:1002E0002093D90149970CF44AC08FB7F894209114
:1002F000D1013091D2014091D3015091D4018FBFEF
:100300008091D5019091D601A091D701B091D801EB
:10031000281B390B4A0B5B0B21F421E030E040E055
:1003200050E0E091D901F091DA0188EE93E0E89F86
:10033000B001E99F700DF89F700D1124072E000C7D
:10034000880B990B0E9436073093DD012093DC0166
:100350001092DA011092D9012FB7F8948091D1014F
:100360009091D201A091D301B091D4012FBF80937D
:10037000D5019093D601A093D701B093D8010F90E7
:100380000F900F90DF91CF911F910F91FF90EF9001
:10039000DF90CF90BF90AF909F907F906F905F90D5
:1003A0004F9008958F929F92AF92BF92CF92DF921B
:1003B000EF92FF924B015C010E9482006B017C0175
:1003C0000E9482006C197D098E099F09683E734066
:1003D00081059105A8F321E0821A9108A108B108CE
:1003E00088EEC80E83E0D81EE11CF11C8114910434
:1003F000A104B10429F7FF90EF90DF90CF90BF9058
:10040000AF909F908F9008950F931F93CF93DF939A
:10041000209123012F5F322F37703093230120FF6B
:100420002BC020E831FD2064347009F02062205F89
:10043000FC01EC01239600E011E06485662329F0BD
:1004400070E0C8010E9422076F5F6187322F369FDC
:10045000030E30E0311D1124311110C016826623C5
:1004600011F0615061873196EC17FD0731F7DF918C
:10047000CF911F910F91089520E0D4CF3150368352
:10048000EECF4F925F926F927F928F92AF92BF9218
:10049000CF92DF92EF920F931F93CF93DF933C01A4
:1004A000EB010E948200F30127853089621B730BE8
:1004B0006A307105B0F3F894E881F9817BB1706816
:1004C0006BB16F776BB9CA848F812C2D281B822F5B
:1004D0002F83BF844A805B801D850C85DE841F5F6F
:1004E0000F5FD3949E813885A984EB844181D2012A
:1004F00020E0C32F522F322F3181442788943111AD
:10050000380F08F43FEF8195889410FD430F47950D
:10051000889411FD430F4795889412FD430F47952A
:10052000889413FD430F4795889414FD430F479516
:10053000889415FD430F4795889416FD430F479502
:10054000889417FD430F47958894232F1111242F6A
:100550008C0D422F002C7BB900C047FF6BB9308156
:100560002227889400C000C0002C6BB93111390FCC
:1005700000C0002C7BB900C046FF6BB908F43FEF08
:100580009195889400C000C0002C6BB900FD230F2A
:1005900000C0002C7BB900C045FF6BB9279588943B
:1005A00001FD230F00C000C0002C6BB92795889473
:1005B00000C0002C7BB900C044FF6BB902FD230FC3
:1005C0002795889400C000C0002C6BB903FD230F51
:1005D00000C0002C7BB900C043FF6BB927958894FD
:1005E00004FD230F00C000C0002C6BB92795889430
:1005F00000C0002C7BB900C042FF6BB905FD230F82
:100600002795889400C000C0002C6BB906FD230F0D
:1006100000C0002C7BB900C041FF6BB927958894BE
:1006200007FD230F00C000C0002C6BB927958894EC
:1006300000C0002C7BB900C040FF6BB9432F0111F3
:10064000422F9A0D00C000C0002C6BB900C000C042
:10065000002C7BB900C047FF6BB9328122278894F8
:1006600000C000C0002C6BB931113C0F00C0002C41
:100670007BB900C046FF6BB908F43FEFEB0DF11DED
:1006800000C000C0002C6BB9D0FC230F00C0002CB0
:100690007BB900C045FF6BB927958894D1FC230F27
:1006A00000C000C0002C6BB92795889400C0002CB6
:1006B0007BB900C044FF6BB9D2FC230F2795889407
:1006C00000C000C0002C6BB9D3FC230F00C0002C6D
:1006D0007BB900C043FF6BB927958894D4FC230FE6
:1006E00000C000C0002C6BB92795889400C0002C76
:1006F0007BB900C042FF6BB9D5FC230F27958894C6
:1007000000C000C0002C6BB9D6FC230F00C0002C29
:100710007BB900C041FF6BB927958894D7FC230FA4
:1007200000C000C0002C6BB92795889400C0002C35
:100730007BB900C040FF6BB9432FD110422FC19548
:1007400000C000C0002C6BB9CE0D00C000C07BB94A
:1007500000C047FF6BB931812227889400C000C0D8
:10076000002C6BB93111380F00C0002C7BB900C0D0
:1007700046FF6BB908F43FEF8195889400C000C034
:10078000002C6BB910FD230F00C0002C7BB900C0FA
:1007900045FF6BB92795889411FD230F00C000C059
:1007A000002C6BB92795889400C0002C7BB900C041
:1007B00044FF6BB912FD230F2795889400C000C039
:1007C000002C6BB913FD230F00C0002C7BB900C0B7
:1007D00043FF6BB92795889414FD230F00C000C018
:1007E000002C6BB92795889400C0002C7BB900C001
:1007F00042FF6BB915FD230F2795889400C000C0F8
:10080000002C6BB916FD230F00C0002C7BB900C073
:1008100041FF6BB92795889417FD230F00C000C0D6
:10082000002C6BB92795889400C0002C7BB900C0C0
:1008300040FF6BB9432F1111422F8C0D00C000C037
:10084000002C6BB9119709F086CE20EE31E0D20171
:100850000E945807DC01CB01F4E0B695A795979567
:100860008795FA95D1F730E020E0B901EAE94E9E8C
:10087000040C611D5E9E600D711D1124650D711DBE
:10088000860F971FA11DB11D893E43E09407A10566
:10089000B10508F434C0885E9340A109B10942E073
:1008A000B695A795979587954A95D1F747E0849F88
:1008B000080E211D949F200D311D1124290F311D7B
:1008C0006091220170E0860F971F820F931F409165
:1008D000D1015091D2016091D3017091D401292F9F
:1008E0003327420F531F611D711D4093D101509357
:1008F000D2016093D3017093D40180932201789444
:100900000E948200F301708B6787DF91CF911F9166
:100910000F91EF90DF90CF90BF90AF908F907F902E
:100920006F905F904F900895579A08950F931F937B
:10093000CF93DF93CDB7DEB762970FB6F894DEBFE3
:100940000FBECDBF8C01F901DC011C968C917A831E
:1009500069835C834B835E834D8390819D87918106
:100960009E8792819F878130F1F4CE0101960E948B
:10097000040283E0888B1A8A198AD801ED91FC91D0
:100980000484F585E02DBE016F5F7F4FC801099596
:1009900062960FB6F894DEBF0FBECDBFDF91CF9148
:1009A0001F910F9108951C861B861A86198618863A
:1009B0001F82DFCF0F931F93CF93DF93CDB7DEB7A7
:1009C00062970FB6F894DEBF0FBECDBF8C01F90160
:1009D000DC011C968C917A8369835C834B835E83F4
:1009E0004D8390819D8791819E8792819F878130E1
:1009F000E9F4CE0101960E940402188A1A8A198A23
:100A0000D801ED91FC910484F585E02DBE016F5F66
:100A10007F4FC801099562960FB6F894DEBF0FBEEE
:100A2000CDBFDF91CF911F910F9108951C861B863A
:100A30001A86198618861F82E0CF90E080E008951C
:100A4000FC01858596850895CF93DF9300D000D073
:100A500000D0CDB7DEB7AB011C821D821E82DC0147
:100A6000ED91FC910190F081E02D19821A821B8298
:100A70009E012F5F3F4FBE016C5F7F4F0995269609
:100A80000FB6F894DEBF0FBECDBFDF91CF910895B2
:100A90000E9493071F920F920FB60F9211242F936B
:100AA0003F938F939F93AF93BF938091D101909188
:100AB000D201A091D301B091D4013091240123E05F
:100AC000230F2D3758F50196A11DB11D2093240148
:100AD0008093D1019093D201A093D301B093D4011C
:100AE0008091250190912601A0912701B0912801C4
:100AF0000196A11DB11D8093250190932601A0931D
:100B00002701B0932801BF91AF919F918F913F91A1
:100B10002F910F900FBE0F901F90189526E8230F6E
:100B20000296A11DB11DD2CF789484B5826084BD98
:100B300084B5816084BD85B5826085BD85B58160E1
:100B400085BD80916E00816080936E00109281005F
:100B5000809181008260809381008091810081601A
:100B600080938100809180008160809380008091DB
:100B7000B10084608093B1008091B0008160809367
:100B8000B00080917A00846080937A0080917A002E
:100B9000826080937A0080917A00816080937A00ED
:100BA00080917A00806880937A001092C10068EB8F
:100BB0007BE080E090E00E94D20180913C018111B5
:100BC00045C010922E0110922D018FEF80933101BC
:100BD00080933201809333018093340180933501F7
:100BE0008093360181E08093370110923901109291
:100BF00038011092300110922F018091E8019091FC
:100C0000E901892B31F48BE291E09093E901809323
:100C1000E801E0912901F0912A01309721F08BE25F
:100C200091E0958384838BE291E090932A018093F5
:100C3000290110923B0110923A0184E191E09093D6
:100C40002C0180932B0181E080933C01579A84E42E
:100C500091E090932E0180932D018EE190E090938E
:100C60003901809338018091DE019091DF01A091DC
:100C7000E001B091E101843C29E09207A105B105B2
:100C800020F484EC99E0A0E0B0E08093DE01909342
:100C9000DF01A093E001B093E1018FEF8093310178
:100CA00080EB8093320180EF8093330180E4809366
:100CB000DB01C1EDD1E001E010E080E0E82E80E052
:100CC000F82E88E690E0A1EAB1E0FC01459155914B
:100CD000659174916C9311965C93119712964C9355
:100CE000129704961396CA17DB0779F71093A001A1
:100CF00000939F0170919E0151E0570F50939E0108
:100D0000A4E4B1E0755A252F22952F70452F4F701E
:100D1000E22FEE0FE20FF0E0EF55FE4F30819181B0
:100D20008281442309F430C033962F3011F4E1EA74
:100D3000F1E04295407FB42EB0946B2D369F030EA8
:100D400030E0311D2081249F020E20E0211D320F52
:100D5000292F269F020E20E0211D9181692F649F7B
:100D6000060E60E0611D922F960F282F6B2D269F97
:100D7000020E20E0211D8281682F649F060E60E034
:100D8000611D822F860F11243C9311969C9311971D
:100D900012968C9312975D5F13965713B4CF809180
:100DA000DB010E94A7008FB7F8948090D10190904A
:100DB000D201A090D301B090D4018FBF61E070E068
:100DC00080E090E00E94D2018091DB010E94A700A8
:100DD0002FB7F8948091D1019091D201A091D301C5
:100DE000B091D4012FBF88199909AA09BB090A97A4
:100DF000A105B10518F3E114F10409F462CF0E94D2
:100E000000005FCFEBEDF1E08FEF80831282118263
:100E1000148613868FEF9FEFDC0187839087A1876D
:100E2000B2870895DB018F939F930E945F07BF9164
:100E3000AF91A29F800D911DA39F900DB29F900D29
:100E40001124089597FB072E16F4009407D077FD20
:100E500009D00E946A0707FC05D03EF49095819561
:100E60009F4F0895709561957F4F0895A1E21A2EC6
:100E7000AA1BBB1BFD010DC0AA1FBB1FEE1FFF1F3E
:100E8000A217B307E407F50720F0A21BB30BE40B8E
:100E9000F50B661F771F881F991F1A9469F76095D5
:100EA0007095809590959B01AC01BD01CF0108958F
:100EB0000E948407B7FF0895821B930B08950E9438
:100EC0008407A59F900DB49F900DA49F800D911D48
:100ED00011240895AA1BBB1B51E107C0AA1FBB1F09
:100EE000A617B70710F0A61BB70B881F991F5A95B6
:100EF000A9F780959095BC01CD010895EE0FFF1FD5
:100F00000590F491E02D0994A29FB001B39FC00118
:100F1000A39F700D811D1124911DB29F700D811D25
:100F20001124911D089581E090E0F8940C949807A5
:040F3000F894FFCF63
:100F340000000000480548054805240520051D0556
:100F440000000000DA0496049404240520057F00C0
:020F5400410258
:00000001FF
