:100000000C9435010C945D010C945D010C945D0120
:100010000C945D010C945D010C945D010C945D01E8
:100020000C945D010C945D010C945D010C945D01D8
:100030000C945D010C945D010C945D010C945D01C8
:100040000C94D5070C945D010C94A3070C947D07C8
:100050000C945D010C945D010C945D010C945D01A8
:100060000C945D010C945D010000FF008080800015
:10007000FF000000000000000000FF008080800002
:10008000FF000000000000000000FF000000FF0073
:100090008080800080808000FF000000FF00000062
:1000A0000000000000000000AB0055007C00840050
:1000B0004B00B5001B00E5000017E8000047B80042
:1000C0000077AB0000ABAB000055AB000022DD00B9
:1000D0000E00F2003E00C20071008F00A1005F0020
:1000E000D0002F00F9070000006400000064000049
:1000F0002F6B55000064000000800000228B22005E
:10010000238E6B0000800000578B2E00AACD660066
:1001100032CD320032CD9A0090EE900000FC7C008F
:10012000AACD6600228B22000000000000008000A3
:10013000000000000000800000008B000000800034
:1001400000008B0000008B0000008B000000FF000F
:1001500000A5FF00FFFFFF0000A5FF000000FF005B
:1001600000008B0000000000FF0000008B0000007A
:100170008B0000008B0000008B0000008B00000053
:100180008B0000008B000000FF0000008B000000CF
:10019000EBCE8700EBCE8700E6D8AD00FFFFFF0077
:1001A000E6D8AD00EBCE8700701919008B00000077
:1001B00070191900800000008B000000CD000000C5
:1001C000578B2E0080800000A09E5F00FF00000083
:1001D0008B8B0000ED956400D4FF7F00578B2E00C1
:1001E000FFFF0000FACE87000000FF0000000000C3
:1001F0000055AB000000000000ABAB0000000000A9
:1002000000FF00000000000055AB000000000000EF
:10021000FF00000000000000AB00550000000000DF
:100220005500AB00000000000000FF00002AD500D0
:100230000055AB00007FAB0000ABAB0000D5560013
:1002400000FF00002AD5000055AB0000AA560000B0
:10025000FF000000D5002A00AB00550081007F00A0
:100260005500AB002B00D500380811241FBECFEF7E
:10027000D8E0DEBFCDBF11E0A0E0B1E0ECEEF5E1EB
:1002800002C005900D92A433B107D9F724E0A4E38E
:10029000B1E001C01D92AE31B207E1F711E0C5E354
:1002A000D1E004C02197FE010E94DA0AC433D107CD
:1002B000C9F70E94A3080C94F40A0C94000020E3F0
:1002C00030E044EC51E0FC01DA0120FF05C002C03F
:1002D00001900D9201900D922250D0F73040C0F75E
:1002E000CA01089580E991E00895AF92BF92CF923C
:1002F000DF92EF92FF920F931F93CF93DF936C01E6
:100300007B018B01040F151FEB015E01AE18BF08C6
:10031000C017D10759F06991D601ED91FC91019078
:10032000F081E02DC6010995892B79F7C501DF9190
:10033000CF911F910F91FF90EF90DF90CF90BF90E2
:10034000AF900895FC01538D448D252F30E0842F0C
:1003500090E0821B930B541710F0CF9608950197ED
:100360000895FC01918D828D981761F0A28DAE0FDA
:10037000BF2FB11D5D968C91928D9F5F9F73928F61
:1003800090E008958FEF9FEF0895FC01918D828D8D
:10039000981731F0828DE80FF11D858D90E008955A
:1003A0008FEF9FEF0895FC01918D228D892F90E0B2
:1003B000805C9F4F821B91098F739927089584EF6A
:1003C00091E00E94D30121E0892B09F420E0822FE3
:1003D000089580E090E0892B29F00E94DF018111CF
:1003E0000C9400000895FC01A48DA80FB92FB11D35
:1003F000A35ABF4F2C91848D90E001968F7399275B
:10040000848FA689B7892C93A089B1898C91837038
:1004100080648C93938D848D981306C00288F38931
:10042000E02D80818F7D80830895EF92FF920F935E
:100430001F93CF93DF93EC0181E0888F9B8D8C8D90
:1004400098131AC0E889F989808185FF15C09FB784
:10045000F894EE89FF896083E889F9898081837047
:10046000806480839FBF81E090E0DF91CF911F91F6
:100470000F91FF90EF900895F62E0B8D10E00F5F17
:100480001F4F0F731127E02E8C8D8E110CC00FB6ED
:1004900007FCFACFE889F989808185FFF5CFCE0185
:1004A0000E94F301F1CFEB8DEC0FFD2FF11DE35A0C
:1004B000FF4FF0829FB7F8940B8FEA89FB89808108
:1004C0008062CFCFCF93DF93EC01888D8823B9F082
:1004D000AA89BB89E889F9898C9185FD03C080814F
:1004E00086FD0DC00FB607FCF7CF8C9185FFF2CFCC
:1004F000808185FFEDCFCE010E94F301E9CFDF912E
:10050000CF9108953FB7F8948091380190913901C7
:10051000A0913A01B0913B0126B5A89B05C02F3FA1
:1005200019F00196A11DB11D3FBFBA2FA92F982F19
:100530008827BC01CD01620F711D811D911D42E014
:10054000660F771F881F991F4A95D1F708954F921C
:100550005F926F927F929F92AF92BF92CF92DF9203
:10056000EF92FF920F931F93CF93DF9300D01F92D0
:10057000CDB7DEB7F82E8091940290919502A091AC
:100580009602B0919702892B8A2B8B2BD9F00E946F
:1005900082020091C0011091C1012091C2013091ED
:1005A000C301601B710B820B930B0091940210919D
:1005B0009502209196023091970260177107820789
:1005C0009307C8F20E9482026093C0017093C10138
:1005D0008093C2019093C301E0919C02F0919D022F
:1005E000309759F0409198025091990260919A0287
:1005F00070919B028F2D0995F82E0091BE011091EC
:10060000BF014F2C512C712C612C0115110509F4DF
:100610005EC0D8011C96EC901C978091920290913C
:1006200093028436910510F41C961C92D801ED912A
:10063000FC91A280B38019821A821B82FF2089F16B
:10064000F8013696D12CC12C2191222319F19280E8
:10065000992001F130E050E040E02F5F3F4F4F4FD5
:100660005F4FC301B2010E946E0A9B01AC01892D4C
:1006700090E0B0E0A0E0BC01CD016F5F7F4F8F4FF5
:100680009F4F0E946E0AA1E0B0E0AC0FBD1FAC0D01
:10069000BD1D8C93BFEFCB1ADB0A83E0C816D104D3
:1006A00099F6D8011D964D915C911E9712966D9109
:1006B0007C919E012F5F3F4FC801F5010995D8013C
:1006C0001C96EC921C9714960D911C919ECF8091D4
:1006D000BC019091BD019C012F5F3F4F3093BD0144
:1006E0002093BC0149970CF44AC08FB7F89420912D
:1006F000B4013091B5014091B6015091B7018FBF5F
:100700008091B8019091B901A091BA01B091BB015B
:10071000281B390B4A0B5B0B21F421E030E040E051
:1007200050E0E091BC01F091BD0188EE93E0E89FBC
:10073000B001E99F700DF89F700D1124072E000C79
:10074000880B990B0E94920A309393022093920295
:100750001092BD011092BC012FB7F8948091B401A2
:100760009091B501A091B601B091B7012FBF8093D0
:10077000B8019093B901A093BA01B093BB010F9057
:100780000F900F90DF91CF911F910F91FF90EF90FD
:10079000DF90CF90BF90AF909F907F906F905F90D1
:1007A0004F9008958F929F92AF92BF92CF92DF9217
:1007B000EF92FF924B015C010E9482026B017C016F
:1007C0000E9482026C197D098E099F09683E734060
:1007D00081059105A8F321E0821A9108A108B108CA
:1007E00088EEC80E83E0D81EE11CF11C8114910430
:1007F000A104B10429F7FF90EF90DF90CF90BF9054
:10080000AF909F908F9008950F931F93CF93DF9396
:10081000209136012F5F322F37703093360120FF41
:100820002BC020E831FD2064347009F02062205F85
:10083000FC01EC01239600E011E06485662329F0B9
:1008400070E0C8010E947E0A6F5F6187322F369F79
:10085000030E30E0311D1124311110C016826623C1
:1008600011F0615061873196EC17FD0731F7DF9188
:10087000CF911F910F91089520E0D4CF315036834E
:10088000EECF4F925F926F927F928F92AF92BF9214
:10089000CF92DF92EF920F931F93CF93DF933C01A0
:1008A000EB010E948202F30127853089621B730BE2
:1008B0006A307105B0F3F894E881F9817BB1706812
:1008C0006BB16F776BB9CA848F812C2D281B822F57
:1008D0002F83BF844A805B801D850C85DE841F5F6B
:1008E0000F5FD3949E813885A984EB844181D20126
:1008F00020E0C32F522F322F3181442788943111A9
:10090000380F08F43FEF8195889410FD430F479509
:10091000889411FD430F4795889412FD430F479526
:10092000889413FD430F4795889414FD430F479512
:10093000889415FD430F4795889416FD430F4795FE
:10094000889417FD430F47958894232F1111242F66
:100950008C0D422F002C7BB900C047FF6BB9308152
:100960002227889400C000C0002C6BB93111390FC8
:1009700000C0002C7BB900C046FF6BB908F43FEF04
:100980009195889400C000C0002C6BB900FD230F26
:1009900000C0002C7BB900C045FF6BB92795889437
:1009A00001FD230F00C000C0002C6BB9279588946F
:1009B00000C0002C7BB900C044FF6BB902FD230FBF
:1009C0002795889400C000C0002C6BB903FD230F4D
:1009D00000C0002C7BB900C043FF6BB927958894F9
:1009E00004FD230F00C000C0002C6BB9279588942C
:1009F00000C0002C7BB900C042FF6BB905FD230F7E
:100A00002795889400C000C0002C6BB906FD230F09
:100A100000C0002C7BB900C041FF6BB927958894BA
:100A200007FD230F00C000C0002C6BB927958894E8
:100A300000C0002C7BB900C040FF6BB9432F0111EF
:100A4000422F9A0D00C000C0002C6BB900C000C03E
:100A5000002C7BB900C047FF6BB9328122278894F4
:100A600000C000C0002C6BB931113C0F00C0002C3D
:100A70007BB900C046FF6BB908F43FEFEB0DF11DE9
:100A800000C000C0002C6BB9D0FC230F00C0002CAC
:100A90007BB900C045FF6BB927958894D1FC230F23
:100AA00000C000C0002C6BB92795889400C0002CB2
:100AB0007BB900C044FF6BB9D2FC230F2795889403
:100AC00000C000C0002C6BB9D3FC230F00C0002C69
:100AD0007BB900C043FF6BB927958894D4FC230FE2
:100AE00000C000C0002C6BB92795889400C0002C72
:100AF0007BB900C042FF6BB9D5FC230F27958894C2
:100B000000C000C0002C6BB9D6FC230F00C0002C25
:100B10007BB900C041FF6BB927958894D7FC230FA0
:100B200000C000C0002C6BB92795889400C0002C31
:100B30007BB900C040FF6BB9432FD110422FC19544
:100B400000C000C0002C6BB9CE0D00C000C07BB946
:100B500000C047FF6BB931812227889400C000C0D4
:100B6000002C6BB93111380F00C0002C7BB900C0CC
:100B700046FF6BB908F43FEF8195889400C000C030
:100B8000002C6BB910FD230F00C0002C7BB900C0F6
:100B900045FF6BB92795889411FD230F00C000C055
:100BA000002C6BB92795889400C0002C7BB900C03D
:100BB00044FF6BB912FD230F2795889400C000C035
:100BC000002C6BB913FD230F00C0002C7BB900C0B3
:100BD00043FF6BB92795889414FD230F00C000C014
:100BE000002C6BB92795889400C0002C7BB900C0FD
:100BF00042FF6BB915FD230F2795889400C000C0F4
:100C0000002C6BB916FD230F00C0002C7BB900C06F
:100C100041FF6BB92795889417FD230F00C000C0D2
:100C2000002C6BB92795889400C0002C7BB900C0BC
:100C300040FF6BB9432F1111422F8C0D00C000C033
:100C4000002C6BB9119709F086CE20EE31E0D2016D
:100C50000E94B40ADC01CB01F4E0B695A795979504
:100C60008795FA95D1F730E020E0B901EAE94E9E88
:100C7000040C611D5E9E600D711D1124650D711DBA
:100C8000860F971FA11DB11D893E43E09407A10562
:100C9000B10508F434C0885E9340A109B10942E06F
:100CA000B695A795979587954A95D1F747E0849F84
:100CB000080E211D949F200D311D1124290F311D77
:100CC0006091350170E0860F971F820F931F40914E
:100CD000B4015091B5016091B6017091B701292F0F
:100CE0003327420F531F611D711D4093B401509370
:100CF000B5016093B6017093B70180933501789484
:100D00000E948202F301708B6787DF91CF911F9160
:100D10000F91EF90DF90CF90BF90AF908F907F902A
:100D20006F905F904F900895579A08950F931F9377
:100D3000CF93DF93CDB7DEB762970FB6F894DEBFDF
:100D40000FBECDBF8C01F901DC011C968C917A831A
:100D500069835C834B835E834D8390819D87918102
:100D60009E8792819F878130F1F4CE0101960E9487
:100D7000040483E0888B1A8A198AD801ED91FC91CA
:100D80000484F585E02DBE016F5F7F4FC801099592
:100D900062960FB6F894DEBF0FBECDBFDF91CF9144
:100DA0001F910F9108951C861B861A861986188636
:100DB0001F82DFCF0F931F93CF93DF93CDB7DEB7A3
:100DC00062970FB6F894DEBF0FBECDBF8C01F9015C
:100DD000DC011C968C917A8369835C834B835E83F0
:100DE0004D8390819D8791819E8792819F878130DD
:100DF000E9F4CE0101960E940404188A1A8A198A1D
:100E0000D801ED91FC910484F585E02DBE016F5F62
:100E10007F4FC801099562960FB6F894DEBF0FBEEA
:100E2000CDBFDF91CF911F910F9108951C861B8636
:100E30001A86198618861F82E0CF909134018E366B
:100E4000C1F49F5F9093340180913401883010F099
:100E5000109234018091340120E3829FC00111245B
:100E600082569D4F21E0843C920739F030F00C947B
:100E70005F01803749F79150E5CFC09620E330E01D
:100E800044EF51E0FC01DA0120FF05C002C00290EE
:100E90000E9202900E922250D0F73040C0F7089583
:100EA00090E080E00895FC01858596850895CF93B4
:100EB000DF9300D000D000D0CDB7DEB7AB011C82ED
:100EC0001D821E82DC01ED91FC910190F081E02DEC
:100ED00019821A821B829E012F5F3F4FBE016C5FF9
:100EE0007F4F099526960FB6F894DEBF0FBECDBF93
:100EF000DF91CF9108950E94EF0A1F920F920FB6D3
:100F00000F9211242F933F934F935F936F937F938F
:100F10008F939F93AF93BF93EF93FF9384EF91E0F1
:100F20000E94F301FF91EF91BF91AF919F918F913B
:100F30007F916F915F914F913F912F910F900FBED5
:100F40000F901F9018951F920F920FB60F921124B9
:100F50002F938F939F93EF93FF93E0910402F0916F
:100F600005028081E0910A02F0910B0282FD1BC014
:100F7000908180910D028F5F8F7320910E028217F6
:100F800041F0E0910D02F0E0EC50FE4F958F809320
:100F90000D02FF91EF919F918F912F910F900FBEB6
:100FA0000F901F9018958081F4CF1F920F920FB66B
:100FB0000F9211242F933F938F939F93AF93BF93DF
:100FC0008091B4019091B501A091B601B091B701A3
:100FD0003091370123E0230F2D3758F50196A11DDD
:100FE000B11D209337018093B4019093B501A09374
:100FF000B601B093B7018091380190913901A09169
:101000003A01B0913B010196A11DB11D80933801B9
:1010100090933901A0933A01B0933B01BF91AF91F6
:101020009F918F913F912F910F900FBE0F901F9026
:10103000189526E8230F0296A11DB11DD2CF0F935C
:101040001F93DC01C096FB01059115912591349108
:101050002C9311961C93119712960C9312976C5F18
:101060007F4F1396A817B90771F71F910F91089535
:10107000E4EFF1E01382128288EE93E0A0E0B0E0AA
:1010800084839583A683B78386E291E091838083EE
:1010900085EC90E09587848784EC90E0978786873D
:1010A00080EC90E0918B808B81EC90E0938B828B35
:1010B00082EC90E0958B848B86EC90E0978B868B0E
:1010C000118E128E138E148EE1E9F2E08FEF808381
:1010D00012821182148613868FEF9FEFDC018783C3
:1010E0009087A187B28768E272E08EE992E00E9461
:1010F0001F0868EE71E08EEC92E00E941F0868EA1B
:1011000071E08EEF92E00E941F0868E671E08EE2C7
:1011100093E00E941F0868E271E08EE593E00E9470
:101120001F0868EE70E08EE893E00E941F0868EAEE
:1011300070E08EEB93E00E941F0868E670E08EEE90
:1011400093E00C941F08789484B5826084BD84B5C4
:10115000816084BD85B5826085BD85B5816085BDB2
:1011600080916E00816080936E001092810080916A
:1011700081008260809381008091810081608093F2
:101180008100809180008160809380008091B10017
:1011900084608093B1008091B00081608093B00042
:1011A00080917A00846080937A0080917A008260D6
:1011B00080937A0080917A00816080937A00809198
:1011C0007A00806880937A001092C100E091040256
:1011D000F091050282E08083E0910002F09101022B
:1011E0001082E0910202F09103028FEC8083109252
:1011F0000C02E0910802F091090286E08083E09100
:101200000602F0910702808180618083E0910602EE
:10121000F0910702808188608083E0910602F0915E
:101220000702808180688083E0910602F0910702C6
:1012300080818F7D808368EB7BE080E090E00E947E
:10124000D20380914F01811145C01092410110924B
:1012500040018FEF809344018093450180934601C4
:1012600080934701809348018093490181E08093F6
:101270004A0110924C0110924B01109243011092BE
:1012800042018091BE019091BF01892B31F48EE320
:1012900091E09093BF018093BE01E0913C01F091F9
:1012A0003D01309721F08EE391E0958384838EE3B6
:1012B00091E090933D0180933C0110924E01109279
:1012C0004D0184E191E090933F0180933E0181E0E4
:1012D00080934F01579A87E591E090934101809365
:1012E00040018EE190E090934C0180934B018091FE
:1012F000940290919502A0919602B0919702843C3D
:1013000029E09207A105B10520F484EC99E0A0E062
:10131000B0E08093940290939502A0939602B093CC
:1013200097028FEF8093440180EB8093450180EF1B
:101330008093460180E48093910288E292E0A4ECDD
:10134000B1E024EF31E0FC01459155916591749134
:101350006C9311965C93119712964C931297049686
:1013600013962A173B0779F7C1E0D0E000E010E0C0
:1013700080E4F82E84EF91E00E94D301892B61F084
:1013800084EF91E00E94B1018E3609F4A3C00CF005
:1013900094C0863609F49BC0D093B301C093B201C8
:1013A0007091B10151E0570F5093B101A7E5B1E041
:1013B000755A252F22952F70452F4F70E22FEE0F73
:1013C000E20FF0E0EC53FE4F3081918182814423A3
:1013D00009F430C033962F3011F4E4ECF1E042957B
:1013E000407FB42EB0946B2D369F030E30E0311D3C
:1013F0002081249F020E20E0211D320F292F269FDD
:10140000020E20E0211D9181692F649F060E60E08D
:10141000611D922F960F282F6B2D269F020E20E024
:10142000211D8281682F649F060E60E0611D822F5E
:10143000860F11243C9311969C93119712968C93CE
:1014400012975D5F13965713B4CF809191020E945B
:10145000A7028FB7F8948090B4019090B501A09046
:10146000B601B090B7018FBF61E070E080E090E01E
:101470000E94D203809191020E94A7022FB7F89494
:101480008091B4019091B501A091B601B091B701DE
:101490002FBF88199909AA09BB090A97A105B105A7
:1014A00018F30115110509F465CF0E94DF018823A7
:1014B00009F460CF0E9400005DCF8F3629F080379D
:1014C00009F06ACF80E707C0F092910265CF1092D1
:1014D000910262CF8EE60E941D075ECFDB018F93E3
:1014E0009F930E94BB0ABF91AF91A29F800D911D57
:1014F000A39F900DB29F900D1124089597FB072E86
:1015000016F4009407D077FD09D00E94C60A07FCA4
:1015100005D03EF4909581959F4F08957095619503
:101520007F4F0895A1E21A2EAA1BBB1BFD010DC01F
:10153000AA1FBB1FEE1FFF1FA217B307E407F50783
:1015400020F0A21BB30BE40BF50B661F771F881F5F
:10155000991F1A9469F760957095809590959B01F5
:10156000AC01BD01CF0108950E94E00AB7FF0895C4
:10157000821B930B08950E94E00AA59F900DB49FD3
:10158000900DA49F800D911D11240895AA1BBB1BD3
:1015900051E107C0AA1FBB1FA617B70710F0A61B73
:1015A000B70B881F991F5A95A9F780959095BC0194
:1015B000CD010895EE0FFF1F0590F491E02D0994E1
:1015C000A29FB001B39FC001A39F700D811D112484
:1015D000911DB29F700D811D1124911D089581E010
:0C15E00090E0F8940C94F40AF894FFCF0B
:1015EC00000000007B077B077B075707530750075A
:1015FC0000000000DA06960694065707530772019E
:10160C0041040000000015027501A2016202D30121
:04161C00B101C50152
:107E0000112484B714BE81FFF0D085E080938100F7
:107E100082E08093C00088E18093C10086E0809377
:107E2000C20080E18093C4008EE0C9D0259A86E02C
:107E300020E33CEF91E0309385002093840096BBD3
:107E4000B09BFECF1D9AA8958150A9F7CC24DD24C4
:107E500088248394B5E0AB2EA1E19A2EF3E0BF2EE7
:107E6000A2D0813461F49FD0082FAFD0023811F036
:107E7000013811F484E001C083E08DD089C08234E0
:107E800011F484E103C0853419F485E0A6D080C0E4
:107E9000853579F488D0E82EFF2485D0082F10E0AE
:107EA000102F00270E291F29000F111F8ED06801E7
:107EB0006FC0863521F484E090D080E0DECF843638
:107EC00009F040C070D06FD0082F6DD080E0C81688
:107ED00080E7D80618F4F601B7BEE895C0E0D1E017
:107EE00062D089930C17E1F7F0E0CF16F0E7DF06D8
:107EF00018F0F601B7BEE89568D007B600FCFDCFD4
:107F0000A601A0E0B1E02C9130E011968C91119780
:107F100090E0982F8827822B932B1296FA010C0160
:107F200087BEE89511244E5F5F4FF1E0A038BF0790
:107F300051F7F601A7BEE89507B600FCFDCF97BE46
:107F4000E89526C08437B1F42ED02DD0F82E2BD052
:107F50003CD0F601EF2C8F010F5F1F4F84911BD097
:107F6000EA94F801C1F70894C11CD11CFA94CF0C13
:107F7000D11C0EC0853739F428D08EE10CD085E9AC
:107F80000AD08FE07ACF813511F488E018D01DD067
:107F900080E101D065CF982F8091C00085FFFCCF94
:107FA0009093C60008958091C00087FFFCCF809118
:107FB000C00084FD01C0A8958091C6000895E0E648
:107FC000F0E098E1908380830895EDDF803219F02E
:107FD00088E0F5DFFFCF84E1DECF1F93182FE3DFCA
:107FE0001150E9F7F2DF1F91089580E0E8DFEE27F6
:047FF000FF270994CA
:027FFE00040479
:0400000300007E007B
:00000001FF
