:100000000C9455000C947D000C947D000C947D00A4
:100010000C947D000C947D000C947D000C947D006C
:100020000C947D000C947D000C947D000C947D005C
:100030000C947D000C947D000C947D000C947D004C
:100040000C94AF060C947D000C947D060C9457061E
:100050000C947D000C947D000C947D000C947D002C
:100060000C947D000C947D000000FF00002AD50058
:100070000055AB00007FAB0000ABAB0000D55600D5
:1000800000FF00002AD5000055AB0000AA56000072
:10009000FF000000D5002A00AB00550081007F0062
:1000A0005500AB002B00D500F90611241FBECFEF81
:1000B000D8E0DEBFCDBF11E0A0E0B1E0E6EFF2E1B5
:1000C00002C005900D92A433B107D9F722E0A4E352
:1000D000B1E001C01D92AD39B207E1F710E0C5E50E
:1000E000D0E004C02197FE010E945F09C435D1070A
:1000F000C9F70E9435070C9479090C94000080E937
:1001000091E00895AF92BF92CF92DF92EF92FF926B
:100110000F931F93CF93DF936C017B018B01040F2F
:10012000151FEB015E01AE18BF08C017D10759F0CB
:100130006991D601ED91FC910190F081E02DC6010D
:100140000995892B79F7C501DF91CF911F910F9107
:10015000FF90EF90DF90CF90BF90AF900895FC019B
:10016000538D448D252F30E0842F90E0821B930B1C
:10017000541710F0CF96089501970895FC01918DC2
:10018000828D981761F0A28DAE0FBF2FB11D5D96C5
:100190008C91928D9F5F9F73928F90E008958FEF67
:1001A0009FEF0895FC01918D828D981731F0828D1B
:1001B000E80FF11D858D90E008958FEF9FEF089572
:1001C000FC01918D228D892F90E0805C9F4F821BD6
:1001D00091098F739927089583EF91E00E94E000C1
:1001E00021E0892B09F420E0822F089580E090E03F
:1001F000892B29F00E94EC0081110C9400000895D5
:10020000FC01A48DA80FB92FB11DA35ABF4F2C918B
:10021000848D90E001968F739927848FA689B78982
:100220002C93A089B1898C91837080648C93938D79
:10023000848D981306C00288F389E02D80818F7D1C
:1002400080830895EF92FF920F931F93CF93DF93D4
:10025000EC0181E0888F9B8D8C8D98131AC0E88902
:10026000F989808185FF15C09FB7F894EE89FF89D1
:100270006083E889F98980818370806480839FBF6F
:1002800081E090E0DF91CF911F910F91FF90EF906F
:100290000895F62E0B8D10E00F5F1F4F0F7311277F
:1002A000E02E8C8D8E110CC00FB607FCFACFE889BA
:1002B000F989808185FFF5CFCE010E940001F1CF41
:1002C000EB8DEC0FFD2FF11DE35AFF4FF0829FB72E
:1002D000F8940B8FEA89FB8980818062CFCFCF931E
:1002E000DF93EC01888D8823B9F0AA89BB89E8895E
:1002F000F9898C9185FD03C0808186FD0DC00FB604
:1003000007FCF7CF8C9185FFF2CF808185FFEDCF81
:10031000CE010E940001E9CFDF91CF9108953FB750
:10032000F8948091370190913801A0913901B091F2
:100330003A0126B5A89B05C02F3F19F00196A11DD3
:10034000B11D3FBFBA2FA92F982F8827BC01CD011F
:10035000620F711D811D911D42E0660F771F881F7E
:10036000991F4A95D1F708954F925F926F927F92AD
:100370009F92AF92BF92CF92DF92EF92FF920F9334
:100380001F93CF93DF9300D01F92CDB7DEB7F82E27
:100390008091930290919402A0919502B09196025F
:1003A000892B8A2B8B2BD9F00E948F010091EF01B2
:1003B0001091F0012091F1013091F201601B710B5D
:1003C000820B930B0091930210919402209195025D
:1003D000309196026017710782079307C8F20E9456
:1003E0008F016093EF017093F0018093F10190937E
:1003F000F201E0919B02F0919C02309759F04091FC
:100400009702509198026091990270919A028F2DF3
:100410000995F82E0091ED011091EE014F2C512C11
:10042000712C612C0115110509F45EC0D8011C96D0
:10043000EC901C97809191029091920284369105E4
:1004400010F41C961C92D801ED91FC91A280B3800F
:1004500019821A821B82FF2089F1F8013696D12C6D
:10046000C12C2191222319F19280992001F130E0D1
:1004700050E040E02F5F3F4F4F4F5F4FC301B2014D
:100480000E94F3089B01AC01892D90E0B0E0A0E050
:10049000BC01CD016F5F7F4F8F4F9F4F0E94F308CC
:1004A000A1E0B0E0AC0FBD1FAC0DBD1D8C93BFEF44
:1004B000CB1ADB0A83E0C816D10499F6D8011D9641
:1004C0004D915C911E9712966D917C919E012F5FCC
:1004D0003F4FC801F5010995D8011C96EC921C9775
:1004E00014960D911C919ECF8091EB019091EC019F
:1004F0009C012F5F3F4F3093EC012093EB01499714
:100500000CF44AC08FB7F8942091E3013091E401D4
:100510004091E5015091E6018FBF8091E7019091F4
:10052000E801A091E901B091EA01281B390B4A0BBF
:100530005B0B21F421E030E040E050E0E091EB0182
:10054000F091EC0188EE93E0E89FB001E99F700D17
:10055000F89F700D1124072E000C880B990B0E9438
:10056000170930939202209391021092EC0110929D
:10057000EB012FB7F8948091E3019091E401A091F1
:10058000E501B091E6012FBF8093E7019093E80168
:10059000A093E901B093EA010F900F900F90DF91C3
:1005A000CF911F910F91FF90EF90DF90CF90BF9070
:1005B000AF909F907F906F905F904F9008958F9233
:1005C0009F92AF92BF92CF92DF92EF92FF924B0138
:1005D0005C010E948F016B017C010E948F016C19EC
:1005E0007D098E099F09683E734081059105A8F336
:1005F00021E0821A9108A108B10888EEC80E83E0B4
:10060000D81EE11CF11C81149104A104B10429F746
:10061000FF90EF90DF90CF90BF90AF909F908F9022
:1006200008950F931F93CF93DF93209135012F5F90
:10063000322F37703093350120FF2BC020E831FD79
:100640002064347009F02062205FFC01EC012396E5
:1006500000E011E06485662329F070E0C8010E9483
:1006600003096F5F6187322F369F030E30E0311D23
:100670001124311110C01682662311F06150618778
:100680003196EC17FD0731F7DF91CF911F910F9154
:10069000089520E0D4CF31503683EECF4F925F9251
:1006A0006F927F928F92AF92BF92CF92DF92EF9232
:1006B0000F931F93CF93DF933C01EB010E948F01B7
:1006C000F30127853089621B730B6A307105B0F323
:1006D000F894E881F9817BB170686BB16F776BB981
:1006E000CA848F812C2D281B822F2F83BF844A80A0
:1006F0005B801D850C85DE841F5F0F5FD3949E8118
:100700003885A984EB844181D20120E0C32F522F88
:10071000322F3181442788943111380F08F43FEF8C
:100720008195889410FD430F4795889411FD430FE0
:100730004795889412FD430F4795889413FD430F06
:100740004795889414FD430F4795889415FD430FF2
:100750004795889416FD430F4795889417FD430FDE
:1007600047958894232F1111242F8C0D422F002C94
:100770007BB900C047FF6BB930812227889400C045
:1007800000C0002C6BB93111390F00C0002C7BB9AF
:1007900000C046FF6BB908F43FEF9195889400C004
:1007A00000C0002C6BB900FD230F00C0002C7BB9EA
:1007B00000C045FF6BB92795889401FD230F00C049
:1007C00000C0002C6BB92795889400C0002C7BB921
:1007D00000C044FF6BB902FD230F2795889400C029
:1007E00000C0002C6BB903FD230F00C0002C7BB9A7
:1007F00000C043FF6BB92795889404FD230F00C008
:1008000000C0002C6BB92795889400C0002C7BB9E0
:1008100000C042FF6BB905FD230F2795889400C0E7
:1008200000C0002C6BB906FD230F00C0002C7BB963
:1008300000C041FF6BB92795889407FD230F00C0C6
:1008400000C0002C6BB92795889400C0002C7BB9A0
:1008500000C040FF6BB9432F0111422F9A0D00C019
:1008600000C0002C6BB900C000C0002C7BB900C0D8
:1008700047FF6BB932812227889400C000C0002C4A
:100880006BB931113C0F00C0002C7BB900C046FF92
:100890006BB908F43FEFEB0DF11D00C000C0002C58
:1008A0006BB9D0FC230F00C0002C7BB900C045FF02
:1008B0006BB927958894D1FC230F00C000C0002C91
:1008C0006BB92795889400C0002C7BB900C044FF09
:1008D0006BB9D2FC230F2795889400C000C0002C70
:1008E0006BB9D3FC230F00C0002C7BB900C043FFC1
:1008F0006BB927958894D4FC230F00C000C0002C4E
:100900006BB92795889400C0002C7BB900C042FFCA
:100910006BB9D5FC230F2795889400C000C0002C2C
:100920006BB9D6FC230F00C0002C7BB900C041FF7F
:100930006BB927958894D7FC230F00C000C0002C0A
:100940006BB92795889400C0002C7BB900C040FF8C
:100950006BB9432FD110422FC19500C000C0002CAD
:100960006BB9CE0D00C000C07BB900C047FF6BB9AA
:1009700031812227889400C000C0002C6BB931114E
:10098000380F00C0002C7BB900C046FF6BB908F4DB
:100990003FEF8195889400C000C0002C6BB910FD1A
:1009A000230F00C0002C7BB900C045FF6BB9279511
:1009B000889411FD230F00C000C0002C6BB927954F
:1009C000889400C0002C7BB900C044FF6BB912FDB5
:1009D000230F2795889400C000C0002C6BB913FD2D
:1009E000230F00C0002C7BB900C043FF6BB92795D3
:1009F000889414FD230F00C000C0002C6BB927950C
:100A0000889400C0002C7BB900C042FF6BB915FD73
:100A1000230F2795889400C000C0002C6BB916FDE9
:100A2000230F00C0002C7BB900C041FF6BB9279594
:100A3000889417FD230F00C000C0002C6BB92795C8
:100A4000889400C0002C7BB900C040FF6BB9432FD5
:100A50001111422F8C0D00C000C0002C6BB91197F2
:100A600009F086CE20EE31E0D2010E943909DC0186
:100A7000CB01F4E0B695A79597958795FA95D1F7B0
:100A800030E020E0B901EAE94E9E040C611D5E9E53
:100A9000600D711D1124650D711D860F971FA11D1D
:100AA000B11D893E43E09407A105B10508F434C0A7
:100AB000885E9340A109B10942E0B695A795979544
:100AC00087954A95D1F747E0849F080E211D949F92
:100AD000200D311D1124290F311D6091340170E06A
:100AE000860F971F820F931F4091E3015091E401FD
:100AF0006091E5017091E601292F3327420F531FC2
:100B0000611D711D4093E3015093E4016093E50181
:100B10007093E6018093340178940E948F01F30171
:100B2000708B6787DF91CF911F910F91EF90DF90CE
:100B3000CF90BF90AF908F907F906F905F904F90CD
:100B40000895579A08950F931F93CF93DF93CDB7CE
:100B5000DEB762970FB6F894DEBF0FBECDBF8C0133
:100B6000F901DC011C968C917A8369835C834B8349
:100B70005E834D8390819D8791819E8792819F871F
:100B80008130F1F4CE0101960E94110383E0888B3D
:100B90001A8A198AD801ED91FC910484F585E02D1B
:100BA000BE016F5F7F4FC801099562960FB6F8943A
:100BB000DEBF0FBECDBFDF91CF911F910F91089582
:100BC0001C861B861A86198618861F82DFCF0F9314
:100BD0001F93CF93DF93CDB7DEB762970FB6F8942C
:100BE000DEBF0FBECDBF8C01F901DC011C968C91DC
:100BF0007A8369835C834B835E834D8390819D8779
:100C000091819E8792819F878130E9F4CE01019680
:100C10000E941103188A1A8A198AD801ED91FC9151
:100C20000484F585E02DBE016F5F7F4FC8010995F3
:100C300062960FB6F894DEBF0FBECDBFDF91CF91A5
:100C40001F910F9108951C861B861A861986188697
:100C50001F82E0CF90E080E00895FC0185859685B5
:100C60000895CF93DF9300D000D000D0CDB7DEB78A
:100C7000AB011C821D821E82DC01ED91FC91019072
:100C8000F081E02D19821A821B829E012F5F3F4F57
:100C9000BE016C5F7F4F099526960FB6F894DEBFB4
:100CA0000FBECDBFDF91CF9108950E9474091F92AE
:100CB0000F920FB60F9211242F933F934F935F9390
:100CC0006F937F938F939F93AF93BF93EF93FF9314
:100CD00083EF91E00E940001FF91EF91BF91AF91EE
:100CE0009F918F917F916F915F914F913F912F9144
:100CF0000F900FBE0F901F9018951F920F920FB676
:100D00000F9211242F938F939F93EF93FF93E09172
:100D10000302F09104028081E0910902F0910A023D
:100D200082FD1BC0908180910C028F5F8F73209198
:100D30000D02821741F0E0910C02F0E0ED50FE4F01
:100D4000958F80930C02FF91EF919F918F912F913E
:100D50000F900FBE0F901F9018958081F4CF1F92B7
:100D60000F920FB60F9211242F933F938F939F935F
:100D7000AF93BF938091E3019091E401A091E501CD
:100D8000B091E6013091360123E0230F2D3758F55D
:100D90000196A11DB11D209336018093E30190932C
:100DA000E401A093E501B093E601809137019091B1
:100DB0003801A0913901B0913A010196A11DB11DF0
:100DC0008093370190933801A0933901B0933A0191
:100DD000BF91AF919F918F913F912F910F900FBE37
:100DE0000F901F90189526E8230F0296A11DB11DA4
:100DF000D2CFE3EFF1E01382128288EE93E0A0E01D
:100E0000B0E084839583A683B78386E291E09183E3
:100E1000808385EC90E09587848784EC90E09787C9
:100E2000868780EC90E0918B808B81EC90E0938BB7
:100E3000828B82EC90E0958B848B86EC90E0978B94
:100E4000868B118E128E138E148EE0E9F2E08FEFF6
:100E5000808312821182148613868FEF9FEFDC014C
:100E600087839087A187B2870895789484B582603C
:100E700084BD84B5816084BD85B5826085BD85B53E
:100E8000816085BD80916E00816080936E001092BC
:100E90008100809181008260809381008091810037
:100EA00081608093810080918000816080938000C8
:100EB0008091B10084608093B1008091B000816026
:100EC0008093B00080917A00846080937A00809152
:100ED0007A00826080937A0080917A0081608093AA
:100EE0007A0080917A00806880937A001092C10025
:100EF000E0910302F091040282E08083E091FF011F
:100F0000F09100021082E0910102F09102028FEC58
:100F1000808310920B02E0910702F091080286E0B4
:100F20008083E0910502F0910602808180618083D8
:100F3000E0910502F0910602808188608083E09153
:100F40000502F0910602808180688083E0910502AD
:100F5000F091060280818F7D808368EB7BE080E0EA
:100F600090E00E94DF0280914E01811145C01092F5
:100F7000400110923F018FEF809343018093440121
:100F800080934501809346018093470180934801F7
:100F900081E08093490110924B0110924A01109216
:100FA0004201109241018091ED019091EE01892B57
:100FB00031F48DE391E09093EE018093ED01E091A7
:100FC0003B01F0913C01309721F08DE391E0958356
:100FD00084838DE391E090933C0180933B011092D8
:100FE0004D0110924C0184E191E090933E01809379
:100FF0003D0181E080934E01579A86E591E0909300
:10100000400180933F018EE190E090934B018093EB
:101010004A018091930290919402A0919502B0911F
:101020009602843C29E09207A105B10520F484ECE6
:1010300099E0A0E0B0E08093930290939402A09393
:101040009502B09396028FEF8093430180EB8093DB
:10105000440180EF8093450180E480939002C3EEC9
:10106000D1E001E010E080E0E82E80E0F82E90E48E
:10107000D92E83EF91E00E94E000892B59F083EF95
:1010800091E00E94BE00863609F4AAC08F3611F4A2
:10109000D092900288E690E0A3EBB1E0FC0145918C
:1010A0005591659174916C9311965C93119712967A
:1010B0004C93129704961396CA17DB0779F710938F
:1010C000B2010093B1017091B00151E0570F5093FC
:1010D000B001A6E5B1E0755A252F22952F70452F56
:1010E0004F70E22FEE0FE20FF0E0ED54FE4F308133
:1010F00091818281442309F430C033962F3011F45A
:10110000E3EBF1E04295407FB42EB0946B2D369F17
:10111000030E30E0311D2081249F020E20E0211DAE
:10112000320F292F269F020E20E0211D9181692F69
:10113000649F060E60E0611D922F960F282F6B2D85
:10114000269F020E20E0211D8281682F649F060EDB
:1011500060E0611D822F860F11243C9311969C93B1
:10116000119712968C9312975D5F13965713B4CF15
:10117000809190020E94B4018FB7F8948090E301AF
:101180009090E401A090E501B090E6018FBF61E08E
:1011900070E080E090E00E94DF02809190020E9467
:1011A000B4012FB7F8948091E3019091E401A091EC
:1011B000E501B091E6012FBF88199909AA09BB0979
:1011C0000A97A105B10518F3E114F10409F451CF10
:1011D0000E94EC00882309F44CCF0E94000049CF04
:1011E0001092900257CFDB018F939F930E9440098A
:1011F000BF91AF91A29F800D911DA39F900DB29FB3
:10120000900D1124089597FB072E16F4009407D033
:1012100077FD09D00E944B0907FC05D03EF490955C
:1012200081959F4F0895709561957F4F0895A1E234
:101230001A2EAA1BBB1BFD010DC0AA1FBB1FEE1F50
:10124000FF1FA217B307E407F50720F0A21BB30B9B
:10125000E40BF50B661F771F881F991F1A9469F717
:1012600060957095809590959B01AC01BD01CF0173
:1012700008950E946509B7FF0895821B930B089596
:101280000E946509A59F900DB49F900DA49F800DAD
:10129000911D11240895AA1BBB1B51E107C0AA1F71
:1012A000BB1FA617B70710F0A61BB70B881F991F07
:1012B0005A95A9F780959095BC01CD010895EE0F40
:1012C000FF1F0590F491E02D0994A29FB001B39FF8
:1012D000C001A39F700D811D1124911DB29F700D3F
:1012E000811D1124911D089581E090E0F8940C94E3
:0612F0007909F894FFCF1C
:1012F6000000000055065506550631062D062A063D
:1013060000000000E705A305A10531062D067F00B4
:101316004E030000000022018200AF006F01E000D2
:04132600BE00D20033
:107E0000112484B714BE81FFF0D085E080938100F7
:107E100082E08093C00088E18093C10086E0809377
:107E2000C20080E18093C4008EE0C9D0259A86E02C
:107E300020E33CEF91E0309385002093840096BBD3
:107E4000B09BFECF1D9AA8958150A9F7CC24DD24C4
:107E500088248394B5E0AB2EA1E19A2EF3E0BF2EE7
:107E6000A2D0813461F49FD0082FAFD0023811F036
:107E7000013811F484E001C083E08DD089C08234E0
:107E800011F484E103C0853419F485E0A6D080C0E4
:107E9000853579F488D0E82EFF2485D0082F10E0AE
:107EA000102F00270E291F29000F111F8ED06801E7
:107EB0006FC0863521F484E090D080E0DECF843638
:107EC00009F040C070D06FD0082F6DD080E0C81688
:107ED00080E7D80618F4F601B7BEE895C0E0D1E017
:107EE00062D089930C17E1F7F0E0CF16F0E7DF06D8
:107EF00018F0F601B7BEE89568D007B600FCFDCFD4
:107F0000A601A0E0B1E02C9130E011968C91119780
:107F100090E0982F8827822B932B1296FA010C0160
:107F200087BEE89511244E5F5F4FF1E0A038BF0790
:107F300051F7F601A7BEE89507B600FCFDCF97BE46
:107F4000E89526C08437B1F42ED02DD0F82E2BD052
:107F50003CD0F601EF2C8F010F5F1F4F84911BD097
:107F6000EA94F801C1F70894C11CD11CFA94CF0C13
:107F7000D11C0EC0853739F428D08EE10CD085E9AC
:107F80000AD08FE07ACF813511F488E018D01DD067
:107F900080E101D065CF982F8091C00085FFFCCF94
:107FA0009093C60008958091C00087FFFCCF809118
:107FB000C00084FD01C0A8958091C6000895E0E648
:107FC000F0E098E1908380830895EDDF803219F02E
:107FD00088E0F5DFFFCF84E1DECF1F93182FE3DFCA
:107FE0001150E9F7F2DF1F91089580E0E8DFEE27F6
:047FF000FF270994CA
:027FFE00040479
:0400000300007E007B
:00000001FF
